:100000000C942A000C943F000C943F000C943F0089
:100010000C943F000C943F000C943F000C943F0064
:100020000C943F000C943F000C943F000C943F0054
:100030000C943F000C943F000C943F000C943F0044
:100040000C943F000C943F000C943F000C943F0034
:100050000C943F0011241FBECFE5D8E0DEBFCDBF1A
:1000600010E0A0E6B0E0EAEEFEE002C005900D92DE
:10007000A23BB107D9F70E94D3010C9473070C94EB
:100080000000813059F018F0823079F014C087B147
:10009000806487B987B18F7787B90DC087B18F7BAF
:1000A00087B987B18F7787B906C087B1806487B970
:1000B00087B1806887B986B18F7D86B986B18F7D1B
:1000C00086B986B1877F86B986B1816086B986B1E7
:1000D000826086B986B1846086B986B1806886B947
:1000E000089561157105A9F0803298F497B1907E5A
:1000F00097B997B1892B87B986B1806486B9349B4B
:10010000FECF86B1806186B984B195B1FB01918340
:1001100080830895CF93C82F80FD06C040E064E03F
:1001200082E00E94970305C041E064E082E00E9403
:100130009703C1FD06C040E065E082E00E9497039E
:1001400005C041E065E082E00E949703C2FD06C061
:1001500040E066E082E00E94970305C041E066E06F
:1001600082E00E949703C3FD06C040E067E082E0A2
:100170000E94970305C041E067E082E00E94970378
:10018000CF91089541E062E082E00E9497038FE9F9
:100190009FE00197F1F700C0000040E062E082E0DC
:1001A0000E9497038FE99FE00197F1F700C00000DC
:1001B0000895CF93C82F41E060E082E00E9497034A
:1001C00040E061E082E00E9497038C2F82958F705F
:1001D0000E948A000E94C2008C2F0E948A000E9406
:1001E000C200CF910895CF93C82F40E060E082E035
:1001F0000E94970340E061E082E00E9497038C2F09
:1002000082958F700E948A000E94C2008C2F0E94EB
:100210008A000E94C200CF91089541E060E082E030
:100220000E94150341E061E082E00E94150341E075
:1002300062E082E00E94150341E064E082E00E94F7
:10024000150341E065E082E00E94150341E066E0AD
:1002500082E00E94150341E067E082E00E941503FE
:100260002FE785EB91E0215080409040E1F700C0FE
:10027000000040E060E082E00E94970340E061E01F
:1002800082E00E94970382E00E948A000E94C200DE
:1002900088E20E94F30020EF2A95F1F78FE00E9498
:1002A000F30080EF8A95F1F781E00E94F3008FE37D
:1002B0009FE10197F1F700C0000086E00E94F30083
:1002C00008950F931F93CF93009729F40CC00E94B9
:1002D000D900CF5F02C08C01C0E0F801EC0FF11D26
:1002E00080818111F4CFCF911F910F91089581E00A
:1002F0000E94F3008FE39FE10197F1F700C0000037
:100300000895882319F0813049F0089580E8860F18
:100310000E94F30080EF8A95F1F7089580EC860F34
:100320000E94F30080EF8A95F1F7089540E060E0C5
:1003300080E00E94150382E00E94410008950F931F
:100340001F93CF93DF9300D0CDB7DEB7009721F195
:100350008C01BE016F5F7F4F80E00E947100298198
:100360003A81A0E0BAE00E9458049B01AC01012E42
:100370001AE056954795379527951A95D1F7102D80
:10038000ADECBCEC0E9458049695879596958795A0
:1003900096958795F80180830F900F90DF91CF910C
:1003A0001F910F910895CF93DF93CDB7DEB7A39739
:1003B0000FB6F894DEBF0FBECDBF82E00E944100B1
:1003C0000E940D010E9419040E94960141E063E021
:1003D00081E00E94150341E060E083E00E94150384
:1003E0008EE0E0E6F0E0DE01129601900D928A9533
:1003F000E1F7FE01709683E0DF011D928A95E9F72F
:100400008DE0E1E7F0E0DE01539601900D928A95D0
:10041000E1F7FE01B09684E0DF011D928A95E9F7CD
:10042000CE0101960E949F0189811F921F921F9207
:100430008F9382E890E09F938F931F9281E18F9337
:100440008E010E5F1F4F1F930F930E947B040E942B
:10045000770160E080E00E948101C8010E94610193
:1004600060E081E00E948101CE0143960E9461011B
:1004700089810FB6F894DEBF0FBECDBF8431E8F49A
:100480000E943A0440E060E083E00E9415031F925E
:1004900088E08F9384E990E09F938F931F9281E18E
:1004A0008F93CE0143969F938F930E947B040FB648
:1004B000F894DEBF0FBECDBFAEC09CEE980F963055
:1004C00000F541E060E083E00E94150382E30E94B2
:1004D00026041F921F921F9282E38F938FE990E070
:1004E0009F938F931F9281E18F93CE0143969F93A9
:1004F0008F930E947B040FB6F894DEBF0FBECDBF72
:100500008AC096EE980F953000F541E060E083E0F8
:100510000E94150386E40E9426041F921F921F92D8
:1005200086E48F938FE990E09F938F931F9281E1F0
:100530008F93CE0143969F938F930E947B040FB6B7
:10054000F894DEBF0FBECDBF66C091EE980F953018
:1005500000F541E060E083E00E94150385E50E941C
:1005600026041F921F921F9285E58F938FE990E0DA
:100570009F938F931F9281E18F93CE0143969F9318
:100580008F930E947B040FB6F894DEBF0FBECDBFE1
:1005900042C08452853000F541E060E083E00E9473
:1005A000150384E60E9426041F921F921F9284E680
:1005B0008F938FE990E09F938F931F9281E18F93A8
:1005C000CE0143969F938F930E947B040FB6F894BD
:1005D000DEBF0FBECDBF1FC041E060E083E00E94E0
:1005E000150384E60E9426041F921F921F9284E640
:1005F0008F938FE990E09F938F931F9281E18F9368
:10060000CE0143969F938F930E947B040FB6F8947C
:10061000DEBF0FBECDBF3FEF84E39CE03150804092
:100620009040E1F700C00000FBCE843008F07EC0AF
:10063000683008F07BC0423008F078C0813019F192
:1006400030F08230E1F1833009F455C0089544233D
:1006500019F0413069F008952AB381E090E002C0BA
:10066000880F991F6A95E2F7809582238ABB0895C7
:100670002AB381E090E002C0880F991F6A95E2F7E3
:10068000822B8ABB0895442319F0413069F0089504
:1006900027B381E090E002C0880F991F6A95E2F7C6
:1006A0008095822387BB089527B381E090E002C044
:1006B000880F991F6A95E2F7822B87BB0895442320
:1006C00019F0413069F0089524B381E090E002C050
:1006D000880F991F6A95E2F78095822384BB08955D
:1006E00024B381E090E002C0880F991F6A95E2F779
:1006F000822B84BB0895442319F0413069F008959A
:1007000021B381E090E002C0880F991F6A95E2F75B
:100710008095822381BB089521B381E090E002C0DF
:10072000880F991F6A95E2F7822B81BB0895843068
:1007300008F07EC0683008F07BC0423008F078C016
:10074000813019F130F08230E1F1833009F455C085
:100750000895442319F0413069F008952BB381E0E6
:1007600090E002C0880F991F6A95E2F78095822376
:100770008BBB08952BB381E090E002C0880F991FD6
:100780006A95E2F7822B8BBB0895442319F0413020
:1007900069F0089528B381E090E002C0880F991FA6
:1007A0006A95E2F78095822388BB089528B381E09B
:1007B00090E002C0880F991F6A95E2F7822B88BBF0
:1007C0000895442319F0413069F0089525B381E07C
:1007D00090E002C0880F991F6A95E2F78095822306
:1007E00085BB089525B381E090E002C0880F991F72
:1007F0006A95E2F7822B85BB0895442319F04130B6
:1008000069F0089522B381E090E002C0880F991F3B
:100810006A95E2F78095822382BB089522B381E036
:1008200090E002C0880F991F6A95E2F7822B82BB85
:10083000089583B7806483BF83B7886083BF83B71D
:100840008F7E83BF83B7806283BF0895853688F427
:10085000982F80E064E670E00E94440461506CBF11
:1008600083B7816083BF83B7826083BF83B78B7F89
:1008700083BF089583B78E7F83BF83B78D7F83BF88
:1008800083B78B7F83BF089597FB072E16F40094E0
:1008900007D077FD09D00E94670407FC05D03EF41D
:1008A000909581959F4F0895709561957F4F08951C
:1008B000A29FB001B39FC001A39F700D811D1124A1
:1008C000911DB29F700D811D1124911D0895AA1BC9
:1008D000BB1B51E107C0AA1FBB1FA617B70710F02B
:1008E000A61BB70B881F991F5A95A9F7809590955D
:1008F000BC01CD010895AEE0B0E0E1E8F4E00C9475
:100900004A070D891E898F89988D26E02C831A83CA
:10091000098397FF02C080E090E801979E838D8352
:10092000AE01455E5F4F698D7A8DCE0101960E94C2
:10093000AB044D815E8157FD0AC02F813885421777
:1009400053070CF49A01F801E20FF31F10822E9660
:10095000E4E00C946607ABE0B0E0E1EBF4E00C946B
:100960003C076C017B018A01FC011782168283819E
:1009700081FFCCC1CE0101963C01F6019381F701C4
:1009800093FD859193FF81917F01882309F4BAC17A
:10099000853239F493FD859193FF81917F018532F2
:1009A00029F4B60190E00E94A206E7CF912C212CF9
:1009B000312CFFE1F315D8F08B3279F038F4803226
:1009C00079F08332A1F4232D20611DC08D3261F0B6
:1009D000803369F4232D216016C0832D8260382E68
:1009E000E32DE4603E2E2AC0F32DF8601DC037FCD5
:1009F0002DC020ED280F2A3040F08E32B9F436FC9D
:100A000081C1232D2064322E19C036FE06C08AE033
:100A1000989E200D1124922E11C0EAE02E9E200DEA
:100A20001124222EF32DF0623F2E08C08C3621F4C3
:100A3000832D8068382E02C0883641F4F70193FD7B
:100A4000859193FF81917F018111B3CF982F9F7D75
:100A50009554933028F40C5F1F4F9FE399830DC08A
:100A6000833631F0833771F0833509F059C021C0E6
:100A7000F801808189830E5F1F4F88248394912C15
:100A8000530113C02801F2E04F0E511CF801A08061
:100A9000B18036FE03C0692D70E002C06FEF7FEFBA
:100AA000C5010E9497064C018201F32DFF773F2E6E
:100AB00016C0280122E0420E511CF801A080B1802E
:100AC00036FE03C0692D70E002C06FEF7FEFC501F5
:100AD0000E948C064C01F32DF0683F2E820133FCFE
:100AE0001BC0822D90E088169906B0F4B60180E212
:100AF00090E00E94A2062A94F4CFF50137FC85917C
:100B000037FE81915F01B60190E00E94A20621109C
:100B10002A9421E0821A91088114910471F7E8C0A7
:100B2000843611F0893641F5F80137FE07C060813F
:100B30007181828193810C5F1F4F08C06081718138
:100B4000072E000C880B990B0E5F1F4FF32DFF76BD
:100B50003F2E97FF09C090958095709561957F4FC6
:100B60008F4F9F4FF0683F2E2AE030E0A3010E9494
:100B7000DE06882E861845C0853731F4232D2F7E5A
:100B8000B22E2AE030E025C0932D997FB92E8F3602
:100B9000C1F018F4883579F0B5C0803719F088377E
:100BA00021F0B0C0E92FE061BE2EB4FE0DC0FB2DD8
:100BB000F460BF2E09C034FE0AC0292F2660B22E71
:100BC00006C028E030E005C020E130E002C020E1AE
:100BD00032E0F801B7FE07C06081718182819381A4
:100BE0000C5F1F4F06C06081718180E090E00E5F56
:100BF0001F4FA3010E94DE06882E8618FB2DFF776B
:100C00003F2E36FE0DC0232D2E7FA22E891458F4C0
:100C100034FE0BC032FC09C0832D8E7EA82E05C089
:100C2000B82CA32C03C0B82C01C0B92CA4FE0FC053
:100C3000FE01E80DF11D8081803321F49A2D997E0B
:100C4000A92E09C0A2FE06C0B394B39404C08A2D95
:100C5000867809F0B394A3FC11C0A0FE06C0B214BC
:100C600088F4280C922C9B180EC0B21460F4B601C4
:100C700080E290E00E94A206B394F7CFB21418F479
:100C80002B1802C0982C212CA4FE10C0B60180E3C2
:100C900090E00E94A206A2FE17C0A1FC03C088E754
:100CA00090E002C088E590E0B6010CC08A2D8678FD
:100CB00059F0A1FE02C08BE201C080E2A7FC8DE2E8
:100CC000B60190E00E94A206891438F4B60180E3D0
:100CD00090E00E94A2069A94F7CF8A94F301E80D5F
:100CE000F11D8081B60190E00E94A2068110F5CF2F
:100CF000222009F442CEB60180E290E00E94A206D2
:100D00002A94F6CFF6018681978102C08FEF9FEF7C
:100D10002B96E2E10C945807FC010590615070405D
:100D20000110D8F7809590958E0F9F1F0895FC01B4
:100D30006150704001900110D8F7809590958E0F0A
:100D40009F1F08950F931F93CF93DF93FB01238180
:100D500021FD03C08FEF9FEF2CC022FF16C04681FC
:100D60005781248135814217530744F4A081B18112
:100D70009D012F5F3F4F318320838C9326813781E4
:100D80002F5F3F4F3783268314C08B01EC01FB019B
:100D90000084F185E02D0995892BE1F6D80116969E
:100DA0008D919C911797019617969C938E93169709
:100DB000CE01DF91CF911F910F910895FA01AA27DB
:100DC000283051F1203181F1E8946F936E7F6E5F8E
:100DD0007F4F8F4F9F4FAF4FB1E03ED0B4E03CD03C
:100DE000670F781F891F9A1FA11D680F791F8A1F1F
:100DF000911DA11D6A0F711D811D911DA11D20D086
:100E000009F468943F912AE0269F11243019305D3F
:100E10003193DEF6CF010895462F4770405D419330
:100E2000B3E00FD0C9F7F6CF462F4F70405D4A337D
:100E300018F0495D31FD4052419302D0A9F7EACF45
:100E4000B4E0A6959795879577956795BA95C9F774
:100E500000976105710508959B01AC010A2E069467
:100E60005795479537952795BA95C9F7620F731F20
:100E7000841F951FA01D08952F923F924F925F925D
:100E80006F927F928F929F92AF92BF92CF92DF929A
:100E9000EF92FF920F931F93CF93DF93CDB7DEB7FF
:100EA000CA1BDB0B0FB6F894DEBF0FBECDBF099493
:100EB0002A88398848885F846E847D848C849B84EA
:100EC000AA84B984C884DF80EE80FD800C811B81F8
:100ED000AA81B981CE0FD11D0FB6F894DEBF0FBE27
:0A0EE000CDBFED010895F894FFCF97
:100EEA0054656D70657261747572653A2000000010
:100EFA000046616E205370656564203A2000000048
:100F0A00000054656D70657261747572653A2025CA
:100F1A006C75430046616E204F46462025630046A5
:100F2A00616E205370656564203A20256C7525250D
:020F3A000000B5
:00000001FF
